:1000000040520020DD330000E5AF0100C93300009D
:10001000C9330000C9330000C933000000000000EC
:10002000000000000000000000000000E5340000B7
:10003000C933000000000000B1340000C9330000E3
:10004000A9360000C5330100A9360000A93600001A
:10005000A9360000A9360000A9360000A936000024
:10006000A9360000A9360000A9360000A936000014
:10007000A9360000A9360000A9360000A936000004
:10008000A9360000A9360000A9360000A9360000F4
:10009000A9360000A9360000A9360000A9360000E4
:1000A000A9360000A9360000A9360000A9360000D4
:1000B000A9360000A9360000A9360000A9360000C4
:1000C000A9360000A9360000A9360000A9360000B4
:1000D000A9360000A9360000A9360000A9360000A4
:1000E000A9360000A9360000A9360000A936000094
:1000F000A9360000A9360000A9360000A936000084
:1001000053B94AB9002908BF00281CBF4FF0FF317E
:100110004FF0FF3000F00CB8ADF1080C6DE904CEE3
:1001200000F008F8DDF804E0DDE9022304B07047D0
:10013000704700BF2DE9F04786468C460846089E6A
:10014000154674461946002B40F0C2808542B2FA2B
:1001500082F245D94AB1C2F1200300FA02FC2EFA1C
:1001600003F3954043EA0C0C94404FEA154EA8B2B5
:10017000BCFBFEF8230C0EFB18CC08FB00F943EA8D
:100180000C43994528D9EB1808F1FF3704D299455B
:1001900002D9A8F102072B44A3EB0903A4B2B3FBD5
:1001A000FEFC0EFB1C330CFB00F044EA0344A042AF
:1001B00014D92C190CF1FF3304D2A04202D9ACF1AE
:1001C00002032C44241A43EA07401EB1D440002302
:1001D00034607360BDE8F0874746DDE76346F1E7CA
:1001E00092BB431B01214FEA154EAFB2B3FBFEFC9D
:1001F000200C0EFB1C330CFB07F840EA0343984528
:1002000062D9EB180CF1FF3004D2984502D9ACF159
:1002100002002B44A3EB0803A4B2B3FBFEFC0EFBCD
:100220001C330CFB07F744EA0344A7424ED92C19B0
:100230000CF1FF3304D2A74202D9ACF102032C44E3
:10024000E41B43EA0040C0E7C2F1200320FA03F1B7
:10025000954090402EFA03F303434FEA154EAFB298
:10026000B1FBFEFC0EFB1C10190C0CFB07F841EA5D
:100270000041884504FA02F422D969180CF1FF30D4
:1002800004D2884502D9ACF102002944A1EB08014F
:100290009BB2B1FBFEFC0EFB1C110CFB07F743EA03
:1002A00001439F420ED9EB180CF1FF3104D29F425B
:1002B00002D9ACF102012B44DB1B41EA004192E779
:1002C0006046E3E76146F7E76046A3E76346B7E7C2
:1002D000834206D916B9002108467BE7C6E900E04B
:1002E000F9E7B3FA83F78FB9834201D3724508D88F
:1002F000BEEB020460EB030301209C461EB9002103
:1003000068E73846FAE7C6E9004CF8E7C7F1200C81
:10031000BB4022FA0CF41C432EFA0CF120FA0CF329
:10032000B84001434FEA14490EFA07F5B3FBF9F858
:100330001FFA84FE09FB18300B0C08FB0EFA43EA87
:1003400000439A4502FA07F240D9E31808F1FF305A
:1003500004D29A4502D9A8F102002344A3EB0A0370
:1003600089B2B3FBF9F809FB183308FB0EFE41EA2A
:1003700003418E452CD9611808F1FF3304D28E4514
:1003800002D9A8F10203214443EA0040A0FB0298ED
:10039000A1EB0E014145CE46434602D306D14D4561
:1003A00004D2B9EB020E68EB04030138002EA6D08C
:1003B000B5EB0E0261EB030101FA0CFC22FA07F324
:1003C0004CEA0303F940C6E9003198E74046C5E727
:1003D0004346D9E7034611F8012B03F8012B002A05
:1003E000F9D17047034613F8012B002AFBD1181AE4
:1003F00001387047000000002DE9F843D0E90735C7
:10040000D0F818805C193034A0450F46164619D82C
:100410001D4DA3FB05011AA3D3E90023FFF770FECE
:100420000346A4EB0800A0FB050123F07F4414A3BE
:10043000D3E90023FFF764FE20F07F403C6030608A
:10044000BDE8F883DFF840900DA3D3E90023A8FBB3
:100450000901FFF755FE044605F1300008A3D3E972
:100460000023A0FB0901FFF74BFE24F07F4420F09E
:100470007F403C603060BDE8F88300BFAFF3008090
:100480008D49FD1A0700000000CA9A3B00000000D9
:10049000002800F03C812DE9F04FC94C94F86A30F7
:1004A000DA078DB000F16D8194F8292094F8353089
:1004B00004EB820204EB8303D66A9F6B0EB33546CE
:1004C00015F8020BC0F380100AF042F90368C6F871
:1004D00002308388AB8033785B0606D50621284638
:1004E00008F0C4FC002800F04E813D4615F8020BD0
:1004F000C0F380100AF02CF90368C7F80230838833
:10050000AB80337813F00E0F40F09380236A1BB159
:100510000C200DB0BDE8F08F0AF096FF8146002850
:1005200000F03F810AF09CFF8246002800F03681EF
:100530000DF098FC0546002800F03581D0F88800C1
:100540004FF6FF732B8505F11C0B002800F021816D
:1005500005F17C0205F1780108F094FCB5F87630DD
:1005600023F4EF6323F0070343F48C7343F0010398
:10057000A5F8763095F8393003F03F0363F07F0338
:1005800085F8393095F88E3023F0070385F88E30E2
:1005900095F83C3023F007034FF0000885F83C3015
:1005A0004FF4C023C5F888312846C5E91288C5F83C
:1005B0008880A5F88C80A5F83280C5F82E8085F853
:1005C0003B80C5F85080A5F88E81A5F884810FF096
:1005D00055FD85F85081C5F854910DF0D7FE95F87A
:1005E000943160F3020385F894310DF0D5FE95F84F
:1005F000943160F3C50385F8943195F8803168F340
:10060000410385F88031012128460EF0D1FA05F129
:10061000D4000FF03BFBC4E9189AC4F820B0C5E938
:10062000058885F80080ED6113F0E6FC002840F0B5
:10063000AC8094F824300121C3F342030DF12B0068
:100640008DF82B3008F0BAFD0246002861D0797889
:1006500030460CF013FF31235A49A3605A4BB4F8CB
:100660006870A0FB01010025C01841F1070152A3E9
:10067000D3E90023C4E9055525706560E560FFF7FF
:100680003FFD20610AF028F800F109083FB93578EC
:1006900005F00F05A5F10105B5FA85F56D0994F88A
:1006A0002400236965F3000010F0010584F824009C
:1006B00036D0464A0992002010600225444A454F30
:1006C00004930BAE019305920321CDE90200069439
:1006D00043460090089607972A460B9509F0FEFEC0
:1006E00031460AF045FFA0B93B4905914AF2D8339B
:1006F0000093CDE90300CDE9010007970896069421
:100700004346012203210B9509F0CCFE2EE00CF0AC
:1007100007BE236A002B3FF4FBAE0CF0BDFDF7E6ED
:100720002A4A2E48049303F2471306940295912116
:100730001360A7FB000301FB0731264B0793244BF3
:1007400005934FF6FF730992022703930BAE1AA38A
:10075000D3E900230B970896FFF7D2FC4346CDE977
:1007600000503A462846032109F0B8FE31460AF007
:10077000FFFE0028CDD194F86A3043F0010384F8DD
:100780006A300020C5E61220C3E60CF085FD032088
:10079000BFE605F18000C5F88800D9E648460AF0B2
:1007A00059FE0720B5E650460AF060FE48460AF0BA
:1007B00051FEF6E7AFF300808D49FD1A07000000F7
:1007C000681F002000CA9A3B8C49FD1A5C1F00205C
:1007D000F9D4000039A80000FDCF0000002AE7840A
:1007E00070B590F824308AB0C3F342030D46044636
:1007F00001210DF1230016468DF8233008F0DEFCB0
:100800007178024628460CF039FE1F491F4AA0FBAA
:100810000131981841F1070119A3D3E90023FFF72B
:100820006FFC23699842054622D21B1A00220192CE
:10083000174A02930221174B0991A21ACA40A3FB3F
:100840000232D20800230A4409AE13490591CDE9CA
:1008500003330321D2B206960093184609F09EFE98
:1008600031460AF085FE38B9256100200AB070BD16
:10087000FBD9C21A0023DAE70C200AB070BD00BF12
:100880008D49FD1A0700000000CA9A3B8C49FD1AE9
:10089000681F0020F712DA4B39A8000000000000A2
:1008A0002DE9F04F06468DB08A4601200221994677
:1008B000154615F0D3F900220B900221012008F013
:1008C00031FB3B494FF4D072304608F0BBFAC71CED
:1008D000FFB2384B00963A460121002009F076FE1F
:1008E00010F0FD0F0ED0344A3449354840F632033B
:1008F00019F087FC002383F31188BFF36F8F032364
:10090000184602DF2F4CA5FB044527A3D3E900239B
:1009100020462946FFF7F4FB0896069633690493B0
:10092000294B20F07F48A8FB0331E01A274B07939F
:100930004FF00702264B059302FB08114FF6FE739A
:1009400065EB010103934FF47A720023FFF7D8FBA4
:100950004FF0000BCDE90180CDF800A04B463A46A0
:100960000121584609F09EFD10F0FD0F0DD0124AEE
:100970001249134840F6470319F043FC8BF31188E2
:10098000BFF36F8F0323184602DF0B9B13B90DB023
:10099000BDE8F08F0122022110460DB0BDE8F04FF6
:1009A00008F0C0BAAFF300808D49FD1A07000000BF
:1009B000B00F002005DE000060E8010024E901001E
:1009C0001CE2010000CA9A3B8D49FD1AA5DD00001A
:1009D000AD300100000000002DE9F0438468228D55
:1009E0004FF6FF739A428DB000F08880054620468E
:1009F0000FF0E4FD2B7D012B00F00F81022B00F0A6
:100A00000281002B00F0E18094F85071002F40F03B
:100A1000FD80E68DB4F83080002E72D12A8A08F16C
:100A200001060023CDE90A33B6B2002A71D094F949
:100A30003930002BC0F248810023A4F88A31AB7C06
:100A4000D90740F1F0800023A4F88E310DF1270280
:100A5000314620460FF04EFB743000F04781B4F869
:100A600088312BB1B34240F20E819B1BA4F8883130
:100A7000B4F884312BB1B34240F2FC809B1BA4F844
:100A80008431258E17B9A84500F0EB800135ADB251
:100A900094F8D13013F001065BD1DDE90A130A4660
:100AA000002B40F0EE80002900F0DD801E46184645
:100AB000228DE4690694CDE903570332A84D0290D4
:100AC000CDE90016D2B201210020059509F066FD9E
:100AD00010F0FD0F12D00AF075FD84420ED0A14A2D
:100AE000A149A2484FF4A36319F08BFB002383F3C1
:100AF0001188BFF36F8F0323184602DF0DB0BDE8E6
:100B0000F0832A8A46440023CDE90A33B6B2002A8C
:100B10008DD1AB7CDA0796D4B4F88A31002B00F083
:100B20008280B34240F2FA809B1BA4F88A31B4F869
:100B30008E31002B8AD09E4280F0DE809B1B9BB2C0
:100B40000022062BA4F88E31228600F2AC80012709
:100B50007CE794F939206FF30003002A84F8D13040
:100B600077DB94F87600C0F3C00100F0070013F0C3
:100B700081F8B4F86E20B4F86C30134403F2D51346
:100B800003447B4A7B480721E3FB0021104672A304
:100B9000D3E90023FFF7B4FADDE90A1320F07F421E
:100BA00020692261904235BF161A801A0020002663
:100BB0000A46002B7FF47CAF56EA010C7FF478AF35
:100BC000002850D019461E4672E794F88E3003F084
:100BD0001803182B7FF418AFA18DB4F886218B1D54
:100BE0009A42C4BF931F5B1AB4F88211CCBF9BB268
:100BF0001346994200F08C80A4F88231A4F8843125
:100C0000A4F8882100E73D2784F850713946204632
:100C10000DB0BDE8F0430DF09DBC0023A4F8883171
:100C2000A4F88431F0E6B4F88E31002B83D1628DC4
:100C3000B4F88C3140F2E24101FB02F242F2107151
:100C400001FB0323013BB3FBF2F39BB2A4F88E310B
:100C50006FE794F87700012100F0070013F00CF81B
:100C600087E73D4614E7002D4BD00026114630465D
:100C700033461DE70023A4F8843120460FF0DEFA46
:100C8000FFE6304614E70AF031FC014600283BD06D
:100C90000023A4F88831238DC3801B2303710068CF
:100CA0000AF0F6FBE4E694F939309342BFF6CEAE93
:100CB000B8F1000F7FF44BAFD4F878315A08DB0756
:100CC00043D4C4F87821C1E628460AAA0BA904F146
:100CD000D409FFF791FB48460FF01AF818B34846BD
:100CE0000FF016F818B300232386A5E69DF8271009
:100CF00020460DF02FFC01E7082120460DF02AFCCC
:100D0000FCE6002FB1D1F9E60123A4F88831AFE663
:100D1000B4F8881100297FF477AE6FE73E212046B2
:100D20000DF018FCEAE6FF200DF0D6FBD7E70246EF
:100D3000D4E91E0108F0BEF80028D4D194F83C3064
:100D4000580744BFA38D238676E642F00042C4F8DC
:100D50007821FCE6AFF300808D49FD1A0700000002
:100D600061DD000060E80100A0E901001CE2010073
:100D70008C49FD1A00CA9A3B2DE9F04F87B0CDE9A6
:100D80000423BDF8442003780292BDF84820BDF842
:100D90004080BDF84C50468EB0F82E90B0F814B19B
:100DA000019104460392002B00F08F80013EB6B201
:100DB000A368D4F80C71721B92B2002B009209DA6E
:100DC000E168626823F0004391422CBF7F18BF188E
:100DD000A360FF1A009A638D13FB02F39BB2B3FB6F
:100DE000F8F218FB02F080B283421FFA82FA5BD25B
:100DF000C01A40F2E2425E4902FB00F0A0FB010192
:100E000059A3D3E90023FFF77BF920F07F40074483
:100E1000D94494F839304D44AD1B554440F2E24674
:100E2000DB09E58506FB08F553D1524A5249534880
:100E300040F6BD0319F0E5F9002686F31188BFF3EB
:100E40006F8F0323184602DFA946029BA385039BED
:100E5000A4F88C3129462046A4F82A800FF086F9A0
:100E6000474BA18D2B44881DB3FBF5F39AB29042FA
:100E7000A4F8862102D2521A063A92B2019BA4F833
:100E8000822113B10023A4F88E313B464A463146F5
:100E90002046FFF705FD94F8803143F0010384F804
:100EA000803107B0BDE8F08F08FB1231304840F2C6
:100EB000E24389B203FB01F1A1FB00012AA3D3E9BC
:100EC0000023FFF71DF93F1AA2E74E445E44B6B275
:100ED0006EE7226C0099A36CDFF894B002FB11332B
:100EE000A36413F0D9F8814694F87401C0F342006A
:100EF00013F0D4F8049B814406FB03F305FB09F9C6
:100F0000236509F574291F4B09F23F29A3FB093911
:100F10004FEA994303FB0AF02364A5EB0309A36C92
:100F20006A080344963A934228BF1346C4E9112342
:100F30000023C4F87C31A0FB0B010BA3D3E90023F1
:100F4000FFF7DEF8104B059A3F1AA3FB0230800A28
:100F500006FB00F004A3D3E90023A0FB0B01FFF77D
:100F6000CFF820F07F4670E78D49FD1A070000009A
:100F700000CA9A3B60E801009CE201001CE201000B
:100F80007FC3C90183DE1B435917B7D1000000009E
:100F90002DE9F04F134615460A6853F8087BD2F83E
:100FA0000090B0F82EC00246044652F82EABD0F89E
:100FB0001E0094F81C800E469178628CA5F808C03B
:100FC0009970D4F82A306B6091B0D4F83A30AB61A4
:100FD000ADF83C2094F83E202A770E9010AA12E932
:100FE000030005F118030C90ADF8341018460521E4
:100FF00008F0E4F86B7F00F03F0060F305036B77C7
:1010000094F83F30C3F30402AA77A28EEA81012844
:10101000C8F3801808D903F01F031B3303F01F0324
:101020000B2B01D892B2BAB90022C9F8142095F856
:10103000203062F3000385F820300126E568267130
:10104000504621460AF018FA28682E71294611B038
:10105000BDE8F04F0AF01CBA336800215960E38EF6
:10106000B5F80EB02B8240F2E24303FB0BFB38468F
:10107000638E0B930FF08EF894F83F2097F874115D
:10108000520962F3430187F8741113F005F80A90CE
:1010900097F87401C0F3420013F000F80A9A104464
:1010A0000BFB00F0A84A00F5742000F23F20A2FBE1
:1010B00000204FEA5B02800C963A6862AA6294F8BC
:1010C000312040F2E24302FB03F3AB63238FA7F826
:1010D0008C31594638460FF049F89C4B9C4AC7F86A
:1010E00090215B44B3FBFBF39AB2A7F88621298ACF
:1010F000881D824204DDC1F57F41FA310A4492B273
:10110000A7F882216B68C7F87831234613F81C2FA3
:10111000C2F340120A92DA0700F1F080BDF83430D1
:10112000A4F823300C9884F81E804FF48073C4F820
:101130001F00A383EB89E3842B8A2385B7F88C31C6
:10114000638597F87431C3F3420384F82C30384632
:101150000CF094FEA881E0802146504674680AF0A5
:101160008BF9AB89E3801C2323710A9BD4F80080A0
:10117000002B40F0B9800A9B2377214640460AF0B5
:1011800087F995F85B00B5F85080B5F85240012119
:1011900000F0070012F070FD444404F2D514DFF8AB
:1011A000B481044482466C480721E4FB08013123E2
:1011B0000024BB607C6062A3D3E90023FC60FEF7DF
:1011C0009FFF20F07F4038610B99F3686D6A40F211
:1011D000E24202FB013303F2B241A1EB0A0A2246CA
:1011E0000221012007F09EFE48460CF043FB024618
:1011F000AAFB0801924652A3D3E90023FEF780FF21
:10120000CDF80490B3685549009120F07F480AF169
:1012100002023A3BD2B243440121204609F018FAB7
:101220000128ABEB050578D099F82430DB0753D4BF
:1012300038460CF023FE474BA5FB03A9044640A308
:10124000D3E9002350464946FEF75AFF444BB6689F
:10125000444A079220F07F45A5FB0331BAEB030017
:10126000414B059340F2D113069708933B694FF029
:10127000000BCDE903B34FF0070303FB051169EB46
:1012800001014FF47A720023FEF73AFF03343A3E2D
:10129000E4B2CDE90150CDF8008033462246012169
:1012A000584609F0FFF810F0FD0F0DD02F4A3049D5
:1012B00030484FF4E97318F0A4FF8BF31188BFF3A3
:1012C0006F8F0323184602DF01220221104611B05E
:1012D000BDE8F04F07F026BE002301220093184618
:1012E000114609F073F9A3E76B7F43F040036B7776
:1012F000281D11F0F1FF0123E8833DE71B4A1E4939
:101300001C48F82318F07DFF002383F31188BFF3F6
:101310006F8F0323184602DF00E70AF053F9814577
:1013200082D0124A1549134840F2792318F069FF18
:1013300084F31188BFF36F8F0323184602DF73E72E
:101340008D49FD1A0700000083DE1B437FC3C901DE
:10135000404B4C0000CA9A3B8C49FD1A6D3001008D
:101360008D49FD1A39300100AD3001003CEE01001D
:1013700024E901001CE20100D4E5010098EE01001F
:10138000F0B5C468636883B00546002B4FD114F0F4
:101390009FF8002014F0C2F80021084614F0B0F8BD
:1013A00000222521082014F0EFF83D4B019301A8FD
:1013B00014F0D2F83B4940F25B6014F075F9237ADF
:1013C000C3F3420262F306132372204613F06AF855
:1013D00027682E68384612F0E9FB06446A6806F171
:1013E0000901012014F08CFA14F04AFB20460CF09D
:1013F0004FFA811C3246C9B2384612F0E5FB054669
:1014000000BB204612F076FB10B9002003B0F0BDFF
:10141000254A2649264840F22C4318F0F2FE85F36F
:101420001188BFF36F8F0323184602DFEDE793F8AF
:1014300020309B07ABD01F48214614F007F814F06A
:10144000EFF8E2E7184A1C49194840F2144318F033
:10145000D8FE1A4B0721A5FB030301FB05310EA3A0
:10146000D3E90023FEF74CFE15490246154818F053
:10147000C8FE002585F31188BFF36F8F032318463C
:1014800002DF1148214613F0E1FF14F0C9F86FF0B4
:101490008B00BBE7AFF3008000CA9A3B000000005E
:1014A000D6BE898E55555500A0F0010098E3010085
:1014B0001CE20100513D01009CE201008D49FD1A32
:1014C00050F1010024F10100A940010000000000DA
:1014D0002DE9F041C468A2894FF6FF739A4282B0A9
:1014E00000F0C980054613F087FA2B89628AE08AEA
:1014F0001A4492B21044637FA28280B2411CE182FE
:101500005E064FF00001618204F1180100F18D8048
:1015100003F03F000B46A17F009004F11F0011F083
:1015200093FE0646D4E90B231344D4E90D020021AF
:101530000244E1626163A16AA26394F872208B4263
:1015400028BF0B4612F00402236378D013F0C0FFCB
:10155000002013F0E3FF201D13F0FEFF2389A17A82
:1015600040F25B6043EA014114F09EF8304612F00D
:101570003DFB21465A4813F069FF962014F0B4F958
:1015800094F85A2094F85B00C2F3C003002102F0E3
:10159000070200F0070014F0EDF8204613F08EFA71
:1015A00027682E68384612F001FB06446A6806F187
:1015B0000901002014F0A4F9804614F035FA002047
:1015C00014F04CFA236B94F85B0003F13002A36B28
:1015D00000F00700012103EB420514F013F8454425
:1015E000054494F85B0000F00700022825D0042889
:1015F0000CBF4FF4BC73282301211D4414F004F8E0
:10160000284414F003FAA18903313246C9B238469E
:1016100012F0DAFA0546002834D1204612F06AFAB0
:10162000D0B9002002B0BDE8F0810A4603F03F03C4
:10163000E18B11F055FE064674E71823DCE7D4E988
:10164000170107F037FC002880D194F8723043F07E
:10165000040384F8723079E7224A2349234840F290
:10166000551318F0CEFD85F31188BFF36F8F032358
:10167000184602DFD5E71E48214613F0E7FE13F0B7
:10168000CFFFCEE7174A1B49184840F24B1318F01A
:10169000B8FD194B0721A5FB030301FB05310EA380
:1016A000D3E90023FEF72CFD14490246144818F034
:1016B000A8FD002585F31188BFF36F8F032318461B
:1016C00002DF1048214613F0C1FE13F0A9FF6FF0AE
:1016D0008B00A7E7AFF3008000CA9A3B0000000030
:1016E0001D4D0100C8F1010098E301001CE201005A
:1016F000513D01009CE201008D49FD1A1CF20100E0
:1017000024F10100313D01001FB502240294044C74
:101710000194BDF8184000941AF024FE04B010BDE6
:101720007804002008B5034620B1074A0748012184
:1017300019F074F9064A0548032119F066F9054BBA
:1017400001221A7008BD00BFD4F40100A4DB01001F
:10175000E8F401004829002010B5094A094803218E
:1017600019F053F9084803F05FFE044628B1074A10
:1017700003460121034819F051F9204610BD00BF6E
:10178000F2F40100A4DB010025170000FBF40100C6
:1017900070B588B0FFF7E0FF174C184D184E23784E
:1017A000C3B1184D184A1648032119F02EF90FCD70
:1017B00003AC0FC42B68236000231449009302225A
:1017C00003A804F017FB014678B1114818F00CFD8E
:1017D00008B070BD03212A46304619F016F90021E1
:1017E00040F6CD4017F0ECFCD9E700214FF48030F3
:1017F00017F0E6FCF9E700BF4829002015F50100C5
:10180000A4DB010090DC01002DF5010064DD010086
:101810003DF501002DE9F04F91B08407009302F0EF
:1018200004030293C2F3C20303F10103DDF86890DD
:10183000039205460E46059340F0BA81041D30B16F
:10184000072909D86FF01B0011B0BDE8F08F01F037
:101850000706341DC6F10806009B4FF00008591E0C
:101860004FF0040A4FF0FF330193CDF81080474644
:10187000C34653460DB1009A22600598002800F334
:10188000E8809848009A824203D397488242C0F089
:10189000E080039AA4EB050E92074FEA9E0000F148
:1018A00003810F2F00F2B180002D00F0058107F1B8
:1018B00040020DEB020C019A0CF8200C0CF8102CD5
:1018C000049801300490E7E07A285DD84B280ED8C0
:1018D000472859D829282DD8252852D054D820282F
:1018E0007AD02338D0F1000B4BEB000B74E04C386E
:1018F0002E2849D8DFE800F0704848484848484852
:10190000484848484B484848484848484859484B40
:101910004B595959704B6D487048184B18484882BC
:101920007F4B48484B487F0000204FF0000B4FF0A2
:10193000040A38E02A38C0B2012202FA00F010EAA4
:101940000E0F49D110F0625C2FD110EA020B43D088
:101950006046013C5444B4FBFAF40AFB04F4002D45
:1019600061D0A3EB050CA444B4453FF66BAF00284F
:1019700068D1042B47D159F8043B23600434042375
:101980002AE0019A013A01924FF0000B24E011F88D
:10199000010C6C2834D111F8023C00206C2B8346DA
:1019A000C5D14FF0080A5346D3E709F1070929F0DA
:1019B00007090734F9E802AB24F0070435B10698AB
:1019C0002044B0423FF63EAFC4E900AB08344FF0CC
:1019D000000B4FF0080A534611F8010F002878D089
:1019E000BBF1000F7FF470AF2528F5D1019B0133C7
:1019F00001934FF0010B4FF0040AECE7584694E7CF
:101A000000208346A5E7082B02D06FF015001BE7E6
:101A100009F1070929F00709F9E80223C4E90023BD
:101A200008340823D8E768B9042B02D109F1040966
:101A3000A4E7082BE9D109F1070929F0070909F101
:101A40000809EDE7059A013A059259F8042B00922E
:101A500010E7039A900720D5A4EB050E4FEA9E00ED
:101A60004FF0010CBEF5007FCFD20F2FCDD8F5B1CE
:101A700007F140020DEB020EC0B2019A0EF8200CE5
:101A80000EF8102CBCF1000F3FF41AAF60F07F008D
:101A90000EF8200C08F101080137C5F108020434E2
:101AA00006924FF6DA7E97E74FF0000CDAE7BCF1CA
:101AB000000F01D00136EFE7029802360028EBD183
:101AC0000098CDE90631FEF78DFCDDE906310644CC
:101AD000E2E7631BB3F5806F97D23DB9A6F1080426
:101AE000E018B1E6E0D801004C110200029A28602B
:101AF0009B082B709DF81030C2B1EB7085F8028006
:101B0000B8F1000F05D008A80022C5F1010C9742DA
:101B10000ED1C5F101030DF120094FF0000A019328
:101B20000DF1300B574512D1601B8DE66B70E5E768
:101B300010F8013B190608D504EB0C0EB64503F06E
:101B40007F033FF67FAE04F8013B0132DFE7B8F1D7
:101B5000000F03D099F90020002A17DB029BD3B1B4
:101B60001AF80B2004F8012B0022019B981820443E
:101B7000B0423FF667AE99F8000004F8010B0099F7
:101B8000039220461BF011FE039A14440AF1010A45
:101B900009F10109C6E799F8002055F822300093B1
:101BA000029B45F822300098FEF71CFC421CDCE743
:101BB0006FF00D0048E600BF2DE9F04F97B000AF81
:101BC00090F802A0D7F880B03B62CBF3C003044684
:101BD000FA62BB61894641B9457800780AEB80001A
:101BE00020444D4517D8A0EB0409E378FB61BAF116
:101BF000000F02D01BF0010F16D1FB6953BBFB6A2B
:101C00001BB13A6A4946204698474D4628465C37FC
:101C1000BD46BDE8F08F461C3046FEF7E3FB0130C1
:101C2000304409F10109DCE7237862687A62FA6AD4
:101C30009900796104EB8301002A40F000814D4650
:101C40000E4601EB0A094FF000084E454CD101EB5E
:101C50000A0610E01BF0020FD1D023789A007A61B7
:101C600062687A62FA6A04EB8301002A77D14D46F2
:101C700001EB0A0690461BF0050F0CBF022301235F
:101C8000FB62FB6906EB430A0BF00203BB6256459D
:101C9000BCD016F8021B16F8013C54F82390AF4B49
:101CA000994502D3AE4B994536D3BB69002B40D042
:101CB000786A18F070FA00283BD0E9468AB06A4684
:101CC000A84B53617B6AC2E906314FF40073138459
:101CD000A54B42F8103FA54800234FF4125100F0E5
:101CE00013FD023DCD46D2E716F8013BF96254F8E8
:101CF0002300FEF777FBD7F88430F96A01304BB147
:101D0000D7F8883098453EBFD7F8843023F81800BC
:101D100008F10108054498E7BB6923B1786A18F017
:101D20003AFA0028C9D11BF0010F05D1FB6AED1A60
:101D3000ADE7BB6A002BAAD04846FEF753FBD7F8A5
:101D4000843053B1D7F8883098453FBFD7F8842006
:101D5000431C22F8183008F10108054497E7BAF14E
:101D6000000F72D01BF0040672D0D046002607F197
:101D7000480052463B61B9621BF017FDB96A3B69E6
:101D800001EB0A02BA62FA69F9695200FA60BA6AAA
:101D900002EB41023A610BF00202BA603A69B96A99
:101DA0008A4257D162787A621BF0020F32440CBF2C
:101DB0004FEA580100211BF0010FD2B240F09F8082
:101DC0001BF0040F14BF40460020BB616270A0707E
:101DD000E1703A6A7969FB6A20469847051EFFF66A
:101DE00015AFBB6923707B6A6370FB69E370414682
:101DF0003A6AFB6A84F802A007F148009847B0F1FC
:101E00000008C0F2B5807B693A6AA9EB0A01C91AD9
:101E1000FB68C91AD7E90A0398470028C0F2AA80CC
:101E2000A84408EB00054FF0000B07F1380AB34552
:101E300067D300213A6AFB6A08469847E6E65646A9
:101E40004FF0000807F1380093E75646D04697E771
:101E5000B04695E7BA6A12F8021BBA6212F8015C42
:101E60003E4A54F82500904202D33D4A90421ED388
:101E7000BA6932B1786A7B6018F08DF97B68002806
:101E80008CD1BA6802BB08F1280207F1300C08F1C6
:101E90000100944407F1580252FA80F008F1020858
:101EA0000CF8101C5FFA88F800F8105C76E7BA6945
:101EB0003AB1786A7B6018F06EF97B6800287FF48D
:101EC0006DAF1BF0010F09D006F1280207F13000B9
:101ED000711C161806F8205CCEB25FE71BF0040FE9
:101EE0003FF45CAF08F1280207F1300008F101016E
:101EF00002EB000808F8105C5FFA81F84EE700205A
:101F000063E71BF80A3087F8373054F82390D7F886
:101F10008430FBB133F81B803A6AFB6A012107F178
:101F200037009847002825DB0544B8F1000F06D19B
:101F30004846FEF757FA00F101081FFA88F83A6A96
:101F4000FB6A414648469847002813DB05440BF1DD
:101F5000010B6CE7D7F88480DEE700BFE0D8010012
:101F60004C1102009FF501000400000114DC010087
:101F700045464BE6054649E6014B1860704700BFF1
:101F80008001002080B505460E461746984617F09A
:101F900035F903461BF09AFCDFF81890044649F81F
:101FA0000030424630463946A84754F8090001F04F
:101FB0002DFA00BF080000002DE9F047058B04460C
:101FC0002807904611D4022905F0070540F0CC807F
:101FD000204618F075FB78B10138218B042811D800
:101FE000DFE800F0C2106D85950001290CBF45F0B7
:101FF000100545F02005258388F31188BFF36F8F06
:10200000BDE8F08701F0070AAA4500F0A580002787
:10201000B9463E46A368002B00F0BC8041F00801A1
:10202000218388F31188BFF36F8FA168002900F026
:10203000BA800D68002900F0B680D1F804803346DC
:1020400052462046C047002D76D02B6829461D46B3
:10205000F0E701F007035A1F012A1BD8002221F0E4
:102060000701062B276889B2C4E9002209D13B4643
:1020700003E0628B013262831B68002BF9D141F0CF
:1020800002012183204618F01BFB00287AD041F082
:10209000200176E0042B0AD121F0070189B22183C7
:1020A000204618F00DFB10B141F020012183218B57
:1020B00001F0070AAA454FD00027B946AAE72369CD
:1020C00021F0070141F00601062DD3F8009021838D
:1020D0002DD1B9F1000F3FD041F00801218388F3E1
:1020E0001188BFF36F8F3A492046C84729E021F095
:1020F0000701236941F0040189B2042DD3F804904B
:102100002183E6D000273E464FF0040A82E721F003
:102110000701236941F0050189B2052DD3F8089024
:102120002183D6D000273E464FF0050A72E70027EC
:102130003E464FF0060A6DE72B4687E7B9F1000FE0
:10214000D1D1EFF31188202383F31288BFF36F8F6F
:10215000238B23F008032383258BEA062ED525F055
:102160001003238305F007056669218B002EBFF657
:1021700070AF00232768C4E9003321F0070141F064
:1021800001012183218B01F0070AAA454FF00009C4
:102190007FF440AF002F9CD041F00801218388F3E9
:1021A0001188BFF36F8F002FC8D03D683946334682
:1021B0005246204618F0B0FA2F46F4E7AB067FF5FA
:1021C0001BAF25F02003238305F0070500E700BFC0
:1021D00045A701002DE9F047DFF85880044607467F
:1021E0004FF0010914B93846BDE8F08794FAA4F518
:1021F000B5FA85F509FA05F32E0108EB05156FEA26
:10220000030A24EA03042B7B002BEBD058F806309A
:102210001B694BB94644042273682846196807EACB
:102220000A0700F05DFADDE7284698470028D9D173
:10223000F0E700BF6CDC010030B51049104889B0F0
:1022400000221BF038F90F4D0F4900220023CDE981
:10225000062300240E23CDE90334CDE901440B4BC2
:1022600000944FF44072284616F0FCFC08492846BA
:102270001AF07CFF204609B030BD00BF9522000057
:10228000300B0020A8060020402E002085250000ED
:1022900053F60100014816F00BBA00BF44050020B8
:1022A0002DE9F04780461F480F4618F028FB0646E8
:1022B000002830D000252846BDE8F087237B6BB18D
:1022C0002368DB680BB12046984723681B69D3B9A4
:1022D000636804221968204600F002FA01361034BF
:1022E0004C45EBD3B8F1000FE5D0002DE2D02846E5
:1022F000FFF770FF0546002FF7D000214FF4A470C0
:1023000016F05EFFF1E7204698470028E0D00AFA71
:1023100006F31D43E2E7044CDFF8109005464FF04A
:10232000010ADDE7C01300206CDC01008CDC010039
:10233000014B53F82000704788DD010008B50346C3
:1023400008462BB1044A136000F06AFC002008BD67
:102350006FF01500FBE700BF8401002010B5044CAE
:10236000237813B9034816F0A3F90123237010BD95
:10237000492900204405002010B50446084818F0FB
:10238000BEFA5CB1BFF35B8F064B53E8001F013907
:1023900043E80012002AF8D1BFF35B8F10BD00BFE5
:1023A000B8130020BC1300200020064BBFF35B8F46
:1023B000014653E8000F43E80012002AF9D1BFF3A9
:1023C0005B8F7047B813002070B5FFF7EDFF084C26
:1023D000084E0546B44200D370BD63685B792BB1EB
:1023E00023685B6813B12946204698471034F1E70B
:1023F0006CDC01008CDC010010B5044C0449204663
:1024000018F006F8034B1C6010BD00BF98040020B4
:1024100074DD0100B0130020084A094808B5002304
:102420001370084A1360084A4FF400411360FFF725
:1024300085FFBDE80840FFF7DFBF00BF4A29002045
:10244000FBA80100B8130020BC13002001460022A5
:102450000148002317F0FDBF98040020014818F040
:1024600093B800BF98040020024B0146186818F08A
:10247000DFB800BFB0130020014818F014B900BF46
:102480009804002070B5284B187800284BD0FFF72F
:10249000E5FF054690B1BFF35B8F244B53E8001F67
:1024A000013943E80012002AF8D1BFF35B8F204CBA
:1024B000204EB4422DD32846FFF7D6FF1E4B1F4CAB
:1024C0001B68002B19DD1AF0AFFF4FF47A72A0FBE6
:1024D000020302FB0131C30BD4E9002043EA41436C
:1024E0009B1A4FEAD13140F2E93261EB000193428D
:1024F00071F1000101D3FFF767FFD4E9003213F552
:102500007A7342F10002C4E90032BDE87040FFF77F
:10251000B3BF63685B7923B1236829461B682046F3
:1025200098471034C5E770BD49290020BC1300202E
:102530006CDC01008CDC0100B8130020280B0020AB
:1025400070B50D4D297861B90120FFF7A9FE0B4C3C
:102550000B4EB44206D3FFF795FF0028FBD10123B1
:102560002B7070BD63685B791BB1236820469B6844
:1025700098471034EDE700BF4A2900206CDC0100C9
:102580008CDC010000212DE9F0470846FFF788FEAA
:10259000044658B340F267684FF000091BF096F903
:1025A0001B4B1C4A1B58136033B11B4B1B68092B78
:1025B00002DD1A4816F07CF8194FDFF860A00025FC
:1025C00044B12046FFF706FE044618B94FF0FF3825
:1025D0004FF0FF39FFF756FF064628B9B5B9424616
:1025E0004B46504616F088F83546E9E74FF0FF387D
:1025F0004FF0FF39D2E72B689B691BB100221146CF
:10260000284698471035BD42F5D3E8E7054DFAE76F
:1026100008000000B4130020BC1300204405002073
:102620008CDC01006CDC010013B5184818F067F968
:10263000174B1B7873B1EFF31184202383F31288B7
:10264000BFF36F8FFFF71EFF84F31188BFF36F8F07
:1026500002B010BD0F4B1B68002BF9D050B90022FF
:102660000023CDE900230C484FF40042002317F06B
:102670002DF8EDE70928EBD107481AF028FF0748A5
:1026800002B0BDE8104016F013B800BFBC13002024
:102690004A290020B4130020300B002044050020FC
:1026A00010B5064B1B68044698472146A0600448B5
:1026B00017F04BFFBDE81040FFF7B6BF84010020C4
:1026C00098040020044A054B9B1AB1EBD30F34BF8A
:1026D00052F8310000207047A4DB01006CDC0100DF
:1026E000084BC31A10B41B114468013323714368AB
:1026F0009A7143681960436801225A7110BCFFF750
:102700002DBE00BF6CDC01002DE9F04F8FB004AF8F
:10271000C1F34A28B8600D4691467B600C0DB8F1B4
:10272000000F63D0002607F114034FF0040B4FF0A5
:102730000A0AC7F80C80C7E907667E620193CDF8E4
:1027400008B0CDF800A007F11C03F96832464846EE
:10275000FFF732FAB0F5006F03461CD36C468AB01F
:10276000D9F8041004AB2648C3E9050140F2FF7113
:10277000D9611A464FF400711984224B42F8103F78
:10278000214833464FF41251FFF7BEFFA5462C37C0
:10279000BD46BDE8F08FC0F30A0804F117001844E5
:1027A00020F0070080083B60FFF750FE68F35325D8
:1027B000044690B13B68154AC7E9083600F110019C
:1027C00007F11403F961CDE900A3CDF808B0F96869
:1027D00007F11C034846FFF7EFF968F353257B68C0
:1027E000B9682A46204618F0C0F8D0E704F117006F
:1027F00020F007008008FFF729FE0446EDE700BF40
:1028000068F601000400000124DC01003FA901007A
:102810002DE9F04F87B0DDE91269DDE9105A044671
:102820000F4693469846A6B31021CDF80090334644
:1028300052460020CDF81490FEF7ECFF014605F15A
:1028400017000844144B039104F007040BF0070B26
:10285000E40020F0070003EA412344EA8B148008D7
:102860001C43FFF7F3FD44EA0554054640B13EB171
:102870000399CDF80090334652461030FEF7CAFF58
:10288000434622463946284607B0BDE8F04F18F0C7
:102890006CB83146D3E700BF00FE0F00406820B19E
:1028A000034BC01A40F3CF0070474FF0FF30704722
:1028B000A4DB01000EB403B503AB014653F8042BAF
:1028C0000448019301F08CF802B05DF804EB03B00A
:1028D000704700BF7DAA0100CA0605D48B064CBF15
:1028E00002490349FFF7E6BF704700BFA8F60100A1
:1028F000A7F601002DE9F04F89B09B46149B069383
:102900009DF84CA0159B0593169B179E04930446B7
:102910000D469046BAF1000F00F09D8006F48073DA
:10292000079318F00AF806F00209024600283ED084
:1029300091492046FFF7BEFF0746B9F1000F08D0C6
:1029400016F0440F35D18D492A462046FFF7B2FFD5
:10295000074406F0010353B1894B8A4953F82A20F2
:10296000894B2046002A08BF1A46FFF7A3FF06F44A
:102970008073002B49D006F00803002B63D1B8F117
:10298000000F66D0814942462046FFF793FF054677
:10299000069B3D44002B6DD1049B002B73D1F307A4
:1029A00000F1E48031462046FFF796FFD8E0074665
:1029B000C3E7774B18680028CAD0764B4FF47A7972
:1029C0001B68B5FBF3F54FF46161B5FBF0F300FB59
:1029D000135509FB05F54FF03C0CB3FBF1F201FB7D
:1029E0001231B5FBF0FEB1FBFCF300FB1E550CFBF6
:1029F000131109FB05F50091B5FBF0F56649CDE92A
:102A000001E52046FFF756FFA2E706F00803EBB109
:102A1000624B634953F82A202046FFF74BFF0546D7
:102A2000B8F1000F05D0594942462046FFF742FF52
:102A30000544BBF1000FABD05A495A462046FFF778
:102A400039FF0544A4E74FF0000BE1E706F0080565
:102A5000E6E745469CE7BBF1010F069B06D1002B3C
:102A600064D1049B002B7BD000250CE0002BF8D018
:102A70004D485CE04D48069B4D49224617F05AFBF5
:102A8000049B002B68D0DFF82C81DFF82C91049F89
:102A90003146102F204628BF1027FFF71DFF4FF0AB
:102AA000000B5D4545DC059B49461A782046FFF73B
:102AB00001FF4FF0010B1BF0070F03D141462046E9
:102AC000FFF7F8FE5F453BD9059B494613F80B20FD
:102AD0002046FFF7EFFE0BF1010BBBF1100FEAD11F
:102AE000364920464FF0000BFFF7E4FE5A46059B9F
:102AF0009A5CA2F120015F2928BF2E22304920468E
:102B0000FFF7D8FE0BF1010BBBF1100F1DD01BF02E
:102B1000070F03D141462046FFF7CCFE5F455A46DA
:102B2000E5D841462046FFF7C5FEEBE71F4855466E
:102B3000A1E741462046FFF7BDFE0BF1010BB0E7D0
:102B400020492046FFF7B6FEC5E7059B3B440593A9
:102B5000049BDB1B04939AD1BAF1000F7FF41FAFE3
:102B6000204609B0BDE8F04F17F07BBF064A054983
:102B70002046FFF79FFE15E7AFF60100B3F6010010
:102B800098DD0100BC020200AAF60100D8F601009F
:102B9000C8130020C4130020BCF60100ACDD010006
:102BA000DCF60100E2F60100B3AA01007DAA0100F3
:102BB000E1390000EFF60100E7F60100F1F601004F
:102BC000F3F60100EDF6010073B542F20F738B428C
:102BD00028BF0B4605680F4A04460521684616F0D3
:102BE00055FE63680C495B6806460B22284617F0C1
:102BF0002BFF63683246694628465B6817F024FF5E
:102C0000636806495B681B22284617F01DFF02B067
:102C100070BD00BF21FE010012F70100F6F60100B1
:102C2000074A00210123904206D8064A01B9012330
:102C30001360054B1860704740085B000121F2E704
:102C400040420F00C4130020C8130020014B012292
:102C50001A7070474B290020014B00201960704703
:102C6000E0130020024B034801221A7017F0F9BE4E
:102C70004C290020DCDD01000148FFF7A5BF00BFA3
:102C8000DCDD010010B5064B18680C46FFF750FB61
:102C900021460346BDE8104002480F22184700BFF6
:102CA000E0130020DCDD010010B9074B18707047FD
:102CB000064B1B781BB141F2883019F085BFA42068
:102CC000002116F07DBA00BF4B2900204C290020BE
:102CD0002DE9F843DFF874901D4F80460E4604241A
:102CE00099F8005095B915F0DFF92846324641466B
:102CF00015F08CF9054615F0E1F9E5B101233B70BB
:102D000099F8003073B93046BDE8F8833246414641
:102D1000002015F07BF90546EFE72046FFF7C4FFDA
:102D2000651E2C46002015F0B5F90028EBD03B7845
:102D3000002BF2D1E7E73B78002BE4D0013C2046A2
:102D4000FFF7B2FF3B78002BCAD1DCE74C2900200B
:102D50004B290020F8B5074F0D4604464618B442EB
:102D600001D12846F8BD14F8011BBB6801485B6817
:102D70009847F4E7D4D90100014B03600020704765
:102D800020DE01000449431E0F3013F8012F8A5C36
:102D90001A708342F9D1704768F70100F0B5264EEA
:102DA00007460C460FCE8DB001AD0FC50FCE0FC537
:102DB00096E8070085E807003846002F38D0002C39
:102DC00038D0381F2146024610344B780D781B044A
:102DD00043EA0563CD782B438D78043143EA05231C
:102DE0008C4242F8043FF0D1144C04218A07036955
:102DF00016D1C3F30742A55C1A0EA25C42EA056233
:102E0000C3F30725DBB2655DE35C42EA054242EAB3
:102E1000032221F0030330336B4453F82C3C53401E
:102E200050F8042F013153402C290361DED10120D9
:102E30000DB0F0BD2046FBE7A4DC010068F70100FF
:102E40002DE9F047064600AF0C46002936D0E9468A
:102E50008AB0D1E90012A3686D462148A8464FF018
:102E6000050AC5E90501C5E9072348F810AF1D4863
:102E7000424600234FF42151FFF746FCCD46D4E9EA
:102E800003126369AD461848C5F810A0C5E90501ED
:102E9000C5E907231348002342464FF42151FFF7A9
:102EA00033FCCD46E369114A0E48012117F0B6FD07
:102EB000A3690F4A0B48012117F0B0FD012E07D17D
:102EC000EFF305830B4A0748103B314617F0A6FD88
:102ED0002146304615F008F9BD46BDE8F08700BF31
:102EE00068F8010054DC010097F80100C6F8010001
:102EF000D5F8010003F9010030BFFFF7FDBF00BFA7
:102F00002DE9F0410B4EDFF8308006EB0807CC1BB3
:102F100005463246094920461AF047FCA0194246A8
:102F20000021083C1AF04FFC6C6707F10800BDE86F
:102F3000F08100BF00000000040000008CDC0100F4
:102F4000074A936893F90E10002907DB52699342F0
:102F50001FBF044A536843F080535360704700BF5B
:102F6000F428002000ED00E070B5294C06460D461F
:102F70002848294918F03DF8A36AD9043CD52548CA
:102F8000264918F036F81720A36A1A0504D52148F7
:102F9000234918F02EF818201D4CA36A9B0512D562
:102FA0001C48204918F025F8A36BA26A100409D523
:102FB0001D4A1848012117F031FD1EB1A36A23F400
:102FC0000043A3621920124CA36A590504D5114885
:102FD000164918F00EF81A20A36ADA050ED50D4826
:102FE000134918F006F81B20094A936A43F47F43FB
:102FF000936200232B7070BD1620C5E7A36A9B0463
:10300000F2D504480B4917F0F4FF1C20ECE700BF91
:1030100000ED00E054DC010016F901002CF901007C
:103020003DF9010050F9010069F901007EF9010044
:1030300099F90100B1F9010010B5204C204921484F
:1030400017F0D7FFA36A990136D51E481E4917F01D
:10305000D0FF1E20A36ADA0104D51A481B4917F0D5
:10306000C8FF1F20154CA36A1B0304D51548184937
:1030700017F0BFFF2120A36A590304D51148154951
:1030800017F0B7FF22200D4CA36A9A0304D50D4810
:10309000114917F0AEFF2320A36ADB0304D50948CA
:1030A0000E4917F0A6FF2420044A936A6FEA0343EF
:1030B0006FEA1343936210BD1D20CBE700ED00E0E3
:1030C000E0F9010054DC0100F8F901000BFA0100FD
:1030D00025FA010043FA010068FA010082FA0100B2
:1030E0002DE9F843364D804689463648364917461D
:1030F00017F07FFFAB6ADE0627D53449314817F059
:1031000078FF1124AB6A1D0704D531492D4817F00B
:1031100070FF12242A4DAB6A980718D52D4929480B
:1031200017F067FF6E6BAB6A190646D52A4A254829
:103130003346012117F072FCB9F1000F03D0AB6ADE
:1031400023F08003AB62132403E01024DAE76FF06E
:1031500015061B4DAB6ADA0704D52049194817F04C
:1031600048FF1424AB6A9B0604D51D49154817F087
:1031700040FF1524124B9A6AD50602D49A6A90072A
:103180000AD55B68190507D54146304600F042FA7A
:1031900010B180F309880224094B9A6A920642BF53
:1031A0005A6A22F400525A629A6A42F0FF029A6204
:1031B00000233B702046BDE8F8836FF01506C2E798
:1031C00000ED00E054DC0100ADFA0100C3FA01009B
:1031D0003DF90100F6FA01000EFB010024FB01009D
:1031E000B1F901002DE9F041664B8AB0D3F80480B3
:1031F00000AF0446C8F30805002686F31188BFF324
:103200006F8F02F07F43B3F17F4F07D102F00C03C1
:10321000082B12D15C495D4817F0EBFE00263446BE
:103220000023FB71EB1E092B00F28A80DFE803F01C
:103230000A80837D88888888888610074CBF0C4662
:103240000126EDE7524951484E4D17F0D2FE0023BA
:10325000FB71EB6A9A0705D54E494C4817F0C9FE39
:10326000002333E0EB6A002B01DA4B49F5E7EB6A08
:103270005B00F5D54949454817F0BBFE6B69A2696B
:1032800043F480736B61BFF34F8FBFF36F8F6B6934
:1032900032F8022C23F480736B61BFF34F8FBFF3BE
:1032A0006F8F4DF602739A4209D0AB6ADBB27BB3E3
:1032B000FA1D01212046FFF713FF034606E02368AD
:1032C000374A3248012117F0A9FB2368FA79DAB9A5
:1032D00007F1080504F1200C206861682A4603C242
:1032E000083464451546F7D17A6A002E44D0C2F3FB
:1032F000080121B96FEA52226FEA42227A6207F18D
:1033000008011846FFF79CFD2837BD46BDE8F0814F
:10331000AB6A13F47F4F04D0F91D0120FFF724FEA0
:10332000CBE7AB6AB3F5803F9AD3FFF785FEC4E7DE
:10333000FA1D0021BEE7F91D0020EFE719498CE7CF
:10334000194A1A4B18F4F87FE8468AB018BF13469A
:103350006A461749C2E905134FF400731384103D00
:10336000144BD56142F8103F084800234FF4115127
:10337000FFF7CAF9C54673E722F4FF7222F0010293
:10338000BCE700BF00ED00E071FB010054DC010070
:103390009CFB0100B3FB0100D4FB0100E2FB010038
:1033A00001FC01001DFC010058FB010043FB010072
:1033B00041FC010004000001024A536943F010037C
:1033C0005361704700ED00E0EFF30880EFF30981EF
:1033D00001B57246FFF706FF01BD00BF13F0C2FF43
:1033E000202080F3118808484FF40461401880F3CE
:1033F0000988EFF314800221084380F31488BFF397
:103400006F8F00F0C7F8000080440020084B9B68D5
:1034100083420BD1EFF3058343B1064B5A6842F068
:1034200080525A605A6A22F400425A6219F09FBFD1
:10343000F428002000ED00E0094A93686FF00A01CB
:10344000D967084998674B6843F080534B60002365
:1034500083F31188BFF36F8F9368D86F704700BFF5
:10346000F428002000ED00E010B50446EFF31183CE
:10347000202383F31288BFF36F8F0A4B586998603B
:10348000094B4FF000625A60084B426F1A600022ED
:10349000836F826783F31188BFF36F8F00F022F987
:1034A000204610BDF428002000ED00E0101400209C
:1034B0000B498A684FF030001044EFF3098C80E824
:1034C000F01F74467046FFF7CFFFA64604498A688E
:1034D00002F1300090E8F01F8CF30988704700007B
:1034E000F42800201EF0040F0CBFEFF30880EFF368
:1034F0000980816911F8021C0229FFD001B517F07B
:103500006DFD01BD40B2002807DB044A41090123DB
:1035100000F01F00834042F82130704700E100E0D6
:1035200040B200280CDB4309064900F01F0020339D
:103530000122824041F82320BFF34F8FBFF36F8FEA
:10354000704700BF00E100E0054B420900F01F009A
:1035500053F82220012303FA00F01040704700BF07
:1035600000E100E040B20028A8BF00F1604001F196
:103570000101B8BF064B4FEA4111ACBF00F56140F5
:1035800000F00F00C9B2B4BF195480F8001370479F
:1035900014ED00E00F4A08B50F4B22F07F029A604D
:1035A000BFF34F8FBFF36F8FD3F8882022F47002E0
:1035B000C3F88820EFF3148323F0040383F3148803
:1035C000BFF36F8F14F07AFE15F0B6FE00F060F8CE
:1035D00014F0C6FE0000000000ED00E042F8203CC0
:1035E000009B42F81C3C0A49019B42F8183C029B94
:1035F00042F8143C21F001014FF0807342F8043C82
:1036000042F8081C0023203A02658367704700BF18
:10361000851F0000094A0346906870B113F1160F28
:10362000406E05D0A0F140029A4205D8834203D2F1
:10363000814228BF0020704700207047F4280020F6
:1036400008B515460B4A0C4B9060426F1A600E4647
:1036500000F048F82C4686F309884FF00000074B2D
:10366000984720464FF000014FF000024FF0000352
:10367000034C2047F42800201014002003B0010060
:10368000851F0000014B10221A61704700ED00E019
:10369000044800232021C2180133302B82F8001384
:1036A000F9D1704700E100E008B5EFF30583064A61
:1036B000103B02EBC30152F8330049688847BDE86C
:1036C0000840FFF73DBC00BFE8D90100024B034AA8
:1036D0000348012100F08AB8000004200000002007
:1036E00020DE0100426E054B403A1A60044A402138
:1036F000C3E901121846012100F082B81414002019
:1037000000000B1508B503461048D0F89020C2F30E
:103710000722013A934207D90D480E4A012117F0BA
:103720007DF96FF0150008BDC0F898300A6822F0E6
:103730001F021A4342F01002C0F89C208A6842F02F
:103740000102C0F8A0201846EDE700BF00ED00E040
:103750003CDC010058FC0100F0B50E4685B01F4668
:1037600004460025B5420DDA606810B397B1431ED8
:1037700018420AD0104A11482B46012117F04EF981
:103780006FF01502104605B0F0BD1F28F2D9216870
:103790000B42EFD12368019317F056FCA36801A9EF
:1037A0000343D0B20393FFF7ADFF10F1160FE7D03C
:1037B000421C01350C34D5E77EFC01003CDC0100E5
:1037C000044B0522C3F89420BFF34F8FBFF36F8FD4
:1037D000704700BF00ED00E0BFF35F8F024B002297
:1037E000C3F89420704700BF00ED00E010B5034C13
:1037F00001232278FFF7B0FF207010BD5E29002062
:1038000008B50B4A00231278FFF7A6FF10F1160F38
:1038100007D0084A0021D2F89030C3F3072398421A
:1038200000DB08BDC2F89800C2F8A0100130F2E732
:103830005E29002000ED00E0F0B559485949D0F864
:1038400090300D68C3F307239D4285B000F2A58038
:10385000FFF7C2FF49680022954201F10C0117D120
:10386000514C524F25706846FFF786FA00250646F0
:10387000AE4220D123784A490020D1F89020C2F3EB
:1038800007229342C0F28380FFF79AFF00202DE0C9
:10389000C0F8982051F80C3C23F01F03134343F069
:1038A0001003C0F89C3051F8043C43F00103C0F809
:1038B000A0300132D0E7009800EB05114FEA051C5B
:1038C000CB683B40B3F5000F4FD011D8B3F5001FC4
:1038D00035D0B3F5800F3DD0B3F5801F17D0344AF3
:1038E0003448012117F091F86FF0150005B0F0BDD4
:1038F000B3F1807F42D0B3F1007FF0D150F80C30AB
:1039000088684A6817F0A0FB40F4802009E050F86E
:103910000C3088684A6817F097FB40F0885040F4F4
:103920003020039001A92078CDE90123FFF7EAFEBA
:103930000028D9DB237801332370013598E750F84C
:103940000C3088684A6817F07FFB40F0885040F4DC
:103950000020E6E750F80C3088684A6817F074FBDE
:1039600040F0E06040F40030DBE750F80C3088684D
:103970004A6817F069FB40F08270D2E750F80C30CB
:1039800088684A6817F060FB40F08870C9E7C1F8A2
:103990009830C1F8A00001336FE74FF0FF30A5E782
:1039A00000ED00E02CDE01005E2900200000F0FFA9
:1039B000A1FC01003CDC010008B5024B1B689847E4
:1039C000002008BD20140020034B044A186093789F
:1039D00043F00203937070472014002090010020F0
:1039E000F0B587B007460E461446002110226846FF
:1039F0001D4619F0E8FE02238DF802302A46054BD9
:103A0000019321466846CDE9047615F06BFF07B0B7
:103A1000F0BD00BF69B0010008B50649064821F0B5
:103A20000701C1F1005202F5802216F046FB00208A
:103A300008BD00BF675F0020241400200E4A012348
:103A4000C2F840354FF080424FF08051C2F87835CF
:103A5000D1F83001082808D1D1F83411052904D84B
:103A60000648415C09B1C2F838364FF08043012264
:103A7000C3F880250020704700E00140D2FC01001F
:103A800020B1034B800143F001031847704700BF8A
:103A900020DD010008B5044819F09BF800280CBF90
:103AA0006FF01200002008BDACD901000E4B402978
:103AB00070B528BF40210D4C46181D46B04203F199
:103AC000020304D1002305F81130074870BD0278C5
:103AD0001209A25C03F8022C10F8012B02F00F026D
:103AE000A25C03F8012CE9E77D2900203BFD0100E1
:103AF00030B503788BB0044607AD032B21D8DFE83F
:103B000003F0021A1C1E12492846FCF763FC0595B7
:103B100063780493A3780393E37802932379019362
:103B200063790093A3790B4A0B481E2115F0AEFE72
:103B300009480BB030BD0949E6E70949E4E70949FE
:103B4000E2E7094A0A21284615F0A0FEDFE700BF98
:103B5000F6FC010018FD01005F290020FDFC0100BA
:103B600004FD01000EFD0100FA0C020030B50A4D03
:103B70000A4B85B0002428460293039419F099FA61
:103B800002AB0093284606490A234FF4A86214F0BA
:103B90007BFF204605B030BD680B00204CFD0100C6
:103BA000803100200146014814F0ACBF680B0020B2
:103BB0000378012B30B513D0022B27D07BB9194BDA
:103BC0000A4603F1100453F8045B42F8045BA34275
:103BD000F9D11B78137043884B731B0A8B7330BD6C
:103BE000104B0A4603F1100453F8045B42F8045BDF
:103BF000A342F9D11B78137043684B73C3F30722B8
:103C00001B0CCB731B0A8A730B74E8E700F11003DB
:103C100050F8042B41F8042B9842F9D103780B702B
:103C2000DDE700BF55FD010038B50546054818F031
:103C300024FD044620B101210C3018F083FD2576C7
:103C4000204638BD50060020132810B50CD10A4874
:103C500018F013FD044628B101210C3018F072FD54
:103C600001232376204610BD09B10448F0E7BDE8E2
:103C700010400120FFF7D8BF7C060020CC050020B3
:103C8000C368034A1B780348022117F075BA00BFC6
:103C90006EFD0100F4DB010037B502EBC3030446FF
:103CA00008469A4202D16FF05E0010E0114611F80A
:103CB000085BA54211D1038A5178994209D9084875
:103CC000084A0094012116F0B3FE6FF0150003B00E
:103CD00030BD536898470020F9E70A46E1E700BF86
:103CE000F4DB010096FD010070B5C6683378B6F8C4
:103CF000014083B90F21204602F092FDF37805467A
:103D000050B90A4A118831B96FEA04506FEA10506D
:103D10001080074A137070BD4372012102F064FCE9
:103D20002846BDE8704002F027BC00BF2C290020C7
:103D3000FE29002070B5C3681D78BDB9B3F80160D5
:103D40000F21304602F06CFD044638B93346084A6C
:103D50000848BDE87040012117F00EBA294602F06C
:103D600043FC2046BDE8704002F006BC70BD00BFB9
:103D7000B8FD0100F4DB010010B5C368B3F80140E1
:103D80000121204602F04CFD38B92346054A064879
:103D9000BDE81040012117F0EFB9BDE8104002F076
:103DA000EBBB00BFDEFD0100F4DB010010B5C36812
:103DB0001C880121204602F033FD38B92346054A0C
:103DC0000548BDE81040012117F0D6B9BDE8104004
:103DD00002F0D2BBDEFD0100F4DB010010B50121D1
:103DE0000C3018F0DAFCBDE810400378024A0348B2
:103DF000012117F0C1B900BF02FE0100F4DB010090
:103E0000014610B5084818F03EFC0849084819F06A
:103E100025F9031E06DABDE81040064A06480121CE
:103E200017F0AAB910BD00BF44010020DC0100203A
:103E3000880C002024FE0100F4DB010010B5084CC2
:103E40000146062294F86F0002F038FE38B994F863
:103E50006F000449BDE81040052202F02FBE10BDDE
:103E600000000020DCFC0100024A0348012117F099
:103E700085B900BF41FE0100F4DB010098B50121C6
:103E800000AF04460C3018F088FC104A007800237C
:103E90002146FFF701FF5F3015D1218AE068FFF767
:103EA00005FE6C4688B06A46094BC2E905304FF4FE
:103EB00000739383074B42F8103F07484FF4E451D7
:103EC00017F06DF9A546BD4698BD00BF34DF01006F
:103ED0005BFE010003000001F4DB0100B0B50B46FE
:103EE0000D8A00AF04462946D868FFF7DFFD8AB087
:103EF0006A46094BC2E9053440F202439384074BFA
:103F0000C2E907504FF4325142F8103F044817F00D
:103F100046F9BD46B0BD00BF7FFE010005000001AF
:103F2000F4DB010010B5012104460C3018F035FC1B
:103F30002146034A0078BDE81040072317F032B944
:103F4000FCDE010070B5C568B5F80160012130469E
:103F500002F066FC044638B933460D4A0D48BDE808
:103F60007040012117F008B92B783BB9D5F8033020
:103F7000C0F8AD30D5F80730C0F8B130201D4FF48F
:103F8000805117F0FDF82046BDE8704002F0F4BA09
:103F9000DEFD0100F4DB010073B53E4818F088FB3C
:103FA0000446002873D0017E012945D003296BD136
:103FB000038A032B02D8384A012141E004210C3046
:103FC00018F0EBFBFF23428806886376238AC6F34A
:103FD0000B009A42608309D0304800920121304A98
:103FE00016F026FD204612F029F812E00F2102F00B
:103FF00017FC054610B9638B2A4ADDE702F030FC56
:10400000320B60762146284602F076F9284602F007
:10401000B3FA254BD3F84431002B38D02349244838
:1040200019F01CF8031E32DA224A1C48012102B0A2
:10403000BDE8704017F0A0B8038A012B04D81E4ACF
:10404000164817F099F8CDE702210C3018F0A5FBBF
:104050000546007817F07EF810F002060DD1174AD9
:104060001749184840F6F52316F0CBF886F3118867
:10407000BFF36F8F0323184602DF134A2878042307
:10408000214617F08FF8ADE7104A0B4694E702B0CF
:1040900070BD00BF44010020A1FE0100F4DB01005F
:1040A000C2FE0100E6FE010000000020DC0100204D
:1040B000880C002024FE010008FF010024FF0100FD
:1040C00058FF010086FF0100DCDE0100A3FF0100B4
:1040D0002DE9F74FDFF828A1BFF35B8F80468946B3
:1040E000174600235AE8004F4AE80032002AF9D167
:1040F000BFF35B8F264644B9424A434843460121F9
:1041000003B0BDE8F04F17F037B8204611F0E8FED5
:104110003E4D4FF00C0B0BFB0050438843451FD026
:10412000204611F0DDFE0BFB00504388384A009317
:1041300035484346012116F07BFCBFF35B8F5AE8FC
:10414000003F4AE80062002AF9D1BFF35B8F002BE1
:1041500053D01E46304603B0BDE8F04F11F06EBF9D
:10416000A7420ED0204618F083FA04F10C08012172
:104170002176404618F0E6FA3A8AF968404618F087
:10418000EBFA204611F0ACFE0C2707FB0050436809
:10419000ABB1B9F1000F12D1204611F0A1FE07FB1F
:1041A000005001214268D2E90003127A03F01F0790
:1041B000B9405B09DAB100EB830016F0E1FF20465D
:1041C00011F08EFE0C2707FB00508368002BC1D036
:1041D000204611F085FE784305F80090204611F046
:1041E0007FFE07FB0055A86814F062FAB2E7C943E6
:1041F00000EB830016F0E4FFE1E703B0BDE8F08FC9
:1042000040010020B7FF0100F4DB01003014002062
:10421000DFFF010038B5042104460C3018F0BDFA68
:10422000034640885D7818B119782246FFF750FFA1
:1042300025B10348BDE8384014F03ABA38BD00BF94
:104240002801002070B5032104460C3018F0A5FAAF
:104250000578B0F80100E36840F6354290421B78DB
:1042600006D1BDE87040084A0848022116F084BF14
:1042700018B122461946FFF72BFF25B10448BDE8C7
:10428000704014F015BA70BD12000200F4DB01009A
:10429000280100202DE9F84FC668018A34780123EF
:1042A00003EB84038B4200AF40F283806D468AB0FB
:1042B0006A464248C2E907310523C2E905044FF4C2
:1042C000215142F8103F3E4816F069FFAD46BD4609
:1042D000BDE8F88F3B4A3A484B46012116F04CFFA7
:1042E000013533789D42F2DA06EB85030F21B3F8EE
:1042F0000190B3F80340484602F092FA8246002843
:10430000E8D04FF0000900F1280B1CB3EFF3118146
:1043100088F31288BFF36F8FDAF81C2072B1013A6C
:10432000CAF81C2081F31188BFF36F8F504601F04B
:10433000A5FF013C14F0BCF9A4B2E6E7DAF81420BA
:1043400062B981F31188BFF36F8F1F4A1C480121A6
:1043500016F014FF504602F00FF9C1E7DAF8180022
:104360001368CAF81430824208BFCAF8183081F3C3
:104370001188BFF36F8FEFF3118088F31288BFF3BA
:104380006F8FD168CAF81C10C2F80C90C2F8009068
:10439000DAF8241049B9CAE9082280F31188BFF37A
:1043A0006F8F584614F06AFBC0E70A60CAF82420F1
:1043B000F3E700254FF0200893E700BF4800020014
:1043C000F4DB0100720002008E00020073B5C568C4
:1043D000B5F801600121304602F022FA044640B9E6
:1043E0002B4A2C483346012102B0BDE8704016F03C
:1043F000C3BE2B781A2B00F1040619D1C378012B08
:104400002AD14FF48061304616F0BAFE42050FD42F
:10441000D4F8A03000936946D4F8A8300193204620
:1044200002F0F8FD204602B0BDE8704002F0A4B8EA
:104430002B788BB9B5F80330A4F89E30B5F8053069
:10444000A4F8A430B5F80730A4F8A6306FF4807152
:10445000304616F0B5FE17E0BFF35B8F6368BFF31D
:104460005B8FDB05F2D52B78202BEFD194F8AC30A5
:10447000002BEBD0013B84F8AC304FF4203200230A
:1044800004F1580014F068FB204602F023FAC9E753
:10449000DEFD0100F4DB010010B5C1E900239DF849
:1044A00008300B720C4611F01BFD034B0C2202FB73
:1044B00000335C6010BD00BF301400202DE9F047D0
:1044C0004FF0FF3206464FF0FF331848884618F089
:1044D000D4F8044638B300F10C0701214FF000096D
:1044E000384618F02FF984F81890204611F0F8FC9F
:1044F0000F4D4FF00C0A0AFB00504680204611F089
:10450000EFFC0AFB0050C0F80890204611F0E8FCD0
:104510000AFB005503213846C5F8049018F016F937
:10452000068080F802802046BDE8F087240600203F
:10453000301400202DE9F041074688B016460C469D
:1045400021B9FFF7BBFF0446002854D002AD012279
:104550000021284618F0D4FC204611F0C1FCDFF8F9
:10456000A4800C2303FB00808560204618F0B8F877
:104570000146254818F0B2F84FF4A022284600233F
:1045800014F0BAF8054698B140F24D131F4A20497D
:10459000204815F036FE20482A46394615F031FEEF
:1045A000002383F31188BFF36F8F0323184602DFC4
:1045B000204611F095FC0C23584318F8005095B193
:1045C000164A174800953B460221093D16F030FA7D
:1045D000EDB2204611F032FD092D0FD8114B58577E
:1045E00008B0BDE8F08116B134600020F8E720463D
:1045F00011F024FDF9E76FF06800F1E76FF00400B7
:10460000EEE700BF301400204C01002024FF010021
:10461000A500020086FF0100AE000200DA000200E1
:10462000F4DB01008A04020073B506460D4601AAB8
:10463000002142F22F00FFF77DFF044638B1154AF2
:104640001548012116F09AFD204602B070BD019870
:10465000C368B3F801203280B3F803302B8011F027
:10466000EDFC3388A3F11B02E02A04D90B4A0A4867
:10467000022116F081FD2B88A3F5A47292B244F2B8
:1046800048118A42E0D9064A0348022116F074FD17
:10469000DAE700BFF6000200F4DB010016010200B9
:1046A0003B010200F7B5144B93F99B30002B0546F4
:1046B0000C461DDA14B9204603B0F0BD082C01AA3F
:1046C0004FF0000142F21800264628BF0826FFF7E7
:1046D00031FF0028F0D1019FF968324601312846A8
:1046E00019F063F8384611F0A9FC3544A41BE1E742
:1046F0006FF08500E0E700BF000000202DE9F04FDB
:1047000089B0A24BB0F801901988047849F470423E
:1047100091424FF0000604BF1E809D4B02AF08BFC0
:104720001E7805462CB33C2C1CD101F023FA6FF007
:104730008001103016F044FD0020FFF77FFB054696
:1047400040B9944A9448012116F018FD1C37BD4623
:10475000BDE8F08F4472002101F046FF284601F0C9
:104760000BFFF3E78D4A8C482346022116F004FD27
:10477000ECE7C378012B08BF894B00F104084046E1
:1047800008BF93F86F4016F0E1FC414650B307F1C3
:10479000100016F0D0FCD5F81130C7F80930B5F884
:1047A0001530A7F80D304FF0010AEB78012B2ED011
:1047B0004046FFF79DF96C4688B002AA794BC2E9E2
:1047C00005304FF400739383774B42F8103F7248E3
:1047D0004FF4E25116F0E3FC1321A546484616F0CB
:1047E000FBFCB3E7204616F0DCFD034600683861A9
:1047F0009A889B796868BA82BB75B8F8042098F8E3
:10480000063095F804A0B860BA81BB73CDE707F114
:104810001000FFF713FBEB78012B04460AD101F0DF
:10482000A9F96FF080018346103016F0C9FC584694
:1048300016F0C6FE002CBBD02346B5F8012023F8A5
:10484000882B3869BA7DB98AC4F888009A71998032
:10485000B5F81730A4F89E30B5F81930A4F8A43094
:10486000B5F81B30A4F8A630EB78E3700022012BDA
:10487000627220D187F808A0BA89BB7BB868A4F817
:10488000932084F89530C4F88F0001F073F9237AEF
:10489000434AC3EBC3039918D358C4F896308B88A6
:1048A000A4F89A308B7984F89C30D2F8E4305D0615
:1048B00001D501F01FFB0721204601F095FE26B12E
:1048C00066720121204601F08FFE204616F0E8FEB8
:1048D000A37A072B55D1BFF35B8F6368304EBFF3CC
:1048E0005B8F13F4805F20D1E3781BB196F8D8304A
:1048F00018071AD5022142F21600FFF7DFFD054620
:10490000002840D002210C3017F020FF23880380BC
:104910000022294642F21600FFF70CFE034620B1A2
:10492000224A1D48012116F027FC96F8D930D907F4
:104930000DD5022300211A460091204616F085FC71
:10494000034620B11A4A1448012116F015FC96F8C6
:10495000D8309A0615D5D6F864319B689B0710D5D8
:10496000B91D381DFFF760FE58B9FA88B98820468E
:1049700016F04DFC034620B10E4A0748012116F0FF
:10498000FBFB2046EBE66FF06803C9E72C2900200B
:10499000FE2900205E010200F4DB01007F0102001D
:1049A000000000209801020003000001B401020091
:1049B000D5010200EC01020000B5C36889B01A7885
:1049C0008DF80020B3F80120ADF80120DA788DF8D9
:1049D0000320B3F80B20ADF81720B3F80D20ADF885
:1049E0001920B3F80F20ADF81B205A7C8DF81D203C
:1049F000586801901A899B7A8DF80A30094BADF8F6
:104A0000082068461A689B88CDF80B20ADF80F3057
:104A1000CDF81120ADF81530FFF770FE09B05DF844
:104A200004FB00BFF0FC010070B50C4D06460FCD35
:104A30008EB06C460FC40FCD0FC40FCD0FC495E8D8
:104A400003000D2E84E803009BBF0EAB03EB86062C
:104A5000034856F8380C0EB070BD00BFD0DC010022
:104A600008020200024BD3F864315B69184700BFAB
:104A70000000002038B505460C4619B9FFF71EFDA9
:104A80000446C8B140F635439D420FD12046FFF79A
:104A9000E9FF054640B10346094A0A48012116F0DC
:104AA0006BFB204611F0CAFA284638BD064821465D
:104AB00017F014FE0025F7E76FF06805F4E700BF74
:104AC00010020200F4DB01004C01002073B5C36842
:104AD000D9789A781E8842EA0122ADF800205979E7
:104AE0001A7942EA0122ADF80220D9799A7942EA8C
:104AF0000122ADF804201A7A5B7AB4B242EA0323A9
:104B000001212046ADF8063001F08AFE054658B96D
:104B10001C481D4A0121234616F02EFB0221204687
:104B200016F0DFFB02B070BD694601F01FFF38B917
:104B30001E21204616F0D5FB284601F01DFDF1E7A9
:104B40000E2142F22000FFF7B9FC04460028F3D002
:104B50000E210C3017F0FAFD00230680C0F80A3051
:104B6000BDF800304380BDF802308380BDF80430CA
:104B7000C380BDF806300381214642F22000FFF7D2
:104B800079FFD9E7F4DB0100DEFD01002DE9F84FE4
:104B90004A4FDFF82C8107F11409FB6848466FF390
:104BA0009433FB6001F096FC451C44484FF0FF3203
:104BB0004FF0FF33294614F0C3FD70B1414942481C
:104BC00040F67233424615F01CFB002383F3118834
:104BD000BFF36F8F0323184602DF384EDFF8ECB0C7
:104BE00015B914F06BFAD8E7F368C3F38633022BD8
:104BF00053D9042B5BD1337B002B51D13448002295
:104C0000002317F03EFD044668B932492E4840F6AD
:104C10000433424615F0F5FA84F31188BFF36F8F21
:104C20000323184602DFDFF8B0A02C484FF0FF3214
:104C30004FF0FF3313F060FDDAF840215AB1284AF3
:104C40002248012116F09AFADAF8400111F0F6F93B
:104C50000022CAF84021204617F042FDCAF8400160
:104C60002046FFF7FFFE0346B8B11E4A1748012150
:104C700016F082FA194813F01BFD204611F030F9A6
:104C8000194B0C2202FB0033588818B122461F2111
:104C9000FFF71EFA204611F0D1F91436013D9FE7C7
:104CA000012BFAD13069383801F0F2FFF5E70F4AED
:104CB0000221584616F060FAEFE700BFA00100207D
:104CC00024FF0100A500020086FF0100F4DB0100C3
:104CD0004C010020340F02000000002028010020B9
:104CE0003202020010020200301400204D020200C5
:104CF0002DE9F843044600F10C06304617F05DFD3F
:104D0000B4F81080B8F1010F05460AD81A4A1B48BA
:104D10004346012116F030FA2046BDE8F84311F071
:104D20008DB93046022117F038FD0746007816F09D
:104D300011FA10F0010906460DD1114A1149124825
:104D40004FF4756315F05DFA89F31188BFF36F8F27
:104D50000323184602DF05230C4A3878214616F053
:104D600021FAB307D8D56369A4F8108013FA85F542
:104D7000E560BDE8F88300BF08FF0100F4DB010037
:104D800024FF01006E02020086FF0100B4DE010074
:104D900038B5044614F056F9237E012B05D0032BB9
:104DA00014D12046FFF72CF80BE0E368187816F0D2
:104DB000D1F9C207054602D52046FFF799FFAB0798
:104DC000EFD4002414F052F9204638BD054A0648B5
:104DD000012116F0D1F9204611F030F96FF01504D9
:104DE000F0E700BF87020200F4DB0100084A034637
:104DF000D2F8640130B9D96839B1596929B1C2F81A
:104E0000643170476FF0770070476FF0150070479E
:104E1000000000202DE9F84F3D4C3E483E4D00AFCC
:104E2000042116F0ADF9E2793C4B2046012A88BFF7
:104E30001D466E46FEF75CFE8AB06A46384BD0616E
:104E4000C2E90535374B1362374B42F8103F3748FC
:104E5000DFF8DC80DFF8D4904FF4235116F09FF98F
:104E6000B546344EA3460125E3799D420BF1070B6D
:104E700038DB94F870502846FFF7D6FD6E468CB0AC
:104E8000B4F87210B4F876306A46DFF8ACC05362FA
:104E9000C2E90751294B4FF40075C2E905C01585D9
:104EA0004FF4535142F8103F204816F078F9B546B8
:104EB00094F871603046FFF7B7FD8AB0B4F87430EB
:104EC0006A461F499584C2E907631E4BC2E9051073
:104ED00042F8103F15484FF4335116F060F9BD46C3
:104EE000BDE8F88F5846FEF703FEEA468AB06A46E8
:104EF00040F20133C2E90565D06113844FF41351C8
:104F000042F8108F484616F04AF90135D546ABE70E
:104F100000000020D4000020A9F601009B0202003E
:104F20009F0202000002010304000002F4DB010002
:104F300004000001AE020200BF02020006000001F0
:104F4000FD02020005000001F0B5BC4D83B0D5F8AC
:104F50006431996811F0010100AF21D13A1D40F68A
:104F60000340FFF7E7FA044600286FD17868C3686A
:104F70001B789BB9BFF35B8FD5F8D430BFF35B8F41
:104F800005F1D40203F00903BFF35B8F52E8001F61
:104F900042E80034002CF9D1BFF35B8F11F04EF8DA
:104FA0003A1D002141F20300FFF7C4FA044600282D
:104FB0004CD17B68A24EDA68D2F80100D2F8051015
:104FC00003C6184611F03AF821463A1D41F2010095
:104FD000FFF7B0FA0446002838D17868C3685A78D9
:104FE00085F870205A88A5F872201A7985F8712002
:104FF000B3F80720A5F87420B3F80530A5F876308B
:1050000011F01CF821463A1D41F20200FFF792FA16
:105010000446D8B9D7F804C0DCF80C20531C413240
:1050200018685968344603C4083393422646F7D1BA
:10503000604611F003F895F87C305E060AD4814A88
:105040008148012116F09AF86FF0120420460C37BF
:10505000BD46F0BD3A1D002142F20300FFF76AFA97
:1050600004460028F2D17B68784EDA68D2F8010055
:10507000D2F8051003C6184610F0E0FF21463A1D8D
:1050800042F20200FFF756FA04460028DED17C689F
:10509000E368B3F8012091B249B1D97839B1A5F8E4
:1050A0000421DA78114606F1280017F029FF20467E
:1050B00010F0C4FF95F87C601F2316F02006A5F8B9
:1050C000203118D1022140F66D40FFF7F7F9044670
:1050D000002800F0A68002210C3017F037FB0123D6
:1050E000037046702146324640F66D40FFF722FAC3
:1050F00004460028AAD195F89C301C0712D53A1D09
:10510000002142F21C00FFF715FA044600289DD149
:105110007868C368D3F80120D3F80530C5E938238F
:1051200010F08CFF95F8D830980620D5B91C384679
:10513000FFF77AFA0446002888D1042142F22400BD
:10514000FFF7BCF9064600286BD004210C3017F09D
:10515000FDFA3B8803807B8843802246314642F239
:105160002400FFF7E7F9044600287FF46FAF082119
:1051700042F20100FFF7A2F90446002851D00821AD
:105180000C3017F0E3FA95F8D82012F0020F14BF94
:105190002F230F23910695F8D92048BF43F04003F1
:1051A00012F0090F18BF43F4006300220370C3F329
:1051B000072343708270C270027142718271C271A2
:1051C000214642F20100FFF7B5F9044600287FF4BA
:1051D0003DAF95F87C30B5F804119A0624D4C9B9CE
:1051E0003A1D41F20500FFF7A5F9044600287FF4B7
:1051F0002DAFB5F804317C684BB9E368B3F80120F2
:10520000A5F804219A881248114617F079FE204625
:1052100010F014FF082140F60140FFF74FF9044653
:10522000D0B96FF0680411E70029F3D1094A0648A4
:10523000012115F0A3FF6FF0040407E70000002030
:105240007800002024030200F4DB0100D8000020D5
:10525000080100204803020008210C3017F076FAFC
:1052600010230370882300224370022620238270BB
:10527000C670027142718271C371214640F60140CD
:10528000FFF758F9044600287FF4E0AE01463A1DC6
:105290004FF60140FFF74EF998B1504A50480221AD
:1052A00015F06CFF00F056FB044600287FF4CEAEEC
:1052B00001F080FD044600287FF4C8AEFFF7AAFD88
:1052C000C4E67B68DC68B4F80130032B96BF454A1E
:1052D000454952F823106E468AB06A464348D36166
:1052E0004FF400731384424BC2E9050142F8103FAA
:1052F0003B484FF4135115F052FFB4F80120B4F8B5
:105300000330022AB54649D1052B47D8394A52F80D
:1053100023106E468AB06A463748D3614FF4007353
:105320001384334BC2E9050142F8103F4FF4135187
:105330002B4815F034FF637994F806C0D4F80900BF
:10534000032BB54698BF2D4AB4F8076094BF52F8B6
:10535000231025496C468CB06A46DFF8A4E0C2E908
:10536000073C4FF400739385264BC2E905E1C2E97F
:1053700009604FF4735142F8103F194815F00FFFC0
:10538000A546786810F05AFE3A1D00214FF60240FB
:10539000FFF7D0F8044618B11B4A7FE71249B8E777
:1053A0007868C368B3F80130A5F8C13010F046FE44
:1053B00095F8C1305B077FF575AF3A1D21464FF672
:1053C0000340FFF7B7F808B1104A67E77868C36889
:1053D0005B7885F8C03010F031FE63E76B030200A4
:1053E000F4DB0100A4DE0100080202008F030200CA
:1053F000040000018CDE0100A80302007CDE010035
:10540000C003020007000001ED03020016040200C1
:1054100010B5FFF799FD034B1B6813B1BDE81040B1
:10542000184710BD4814002070B5344DD5F86431CC
:1054300088B006464BB9324A3248012115F09EFE2B
:105440006FF01204204608B070BD6FF0020105F144
:10545000D40015F0B5FE012115F092FE10EA01040A
:1054600048D1294B1E600A4605F5947017F048FD97
:1054700005F5A67017F000FD00220023CDE90623F4
:105480006FF00803CDE90243CDE900441F4B2049EA
:1054900004944FF440721F4813F0E4FB1E491D486A
:1054A00017F064FE1D4817F004FE1D491B480094C8
:1054B0006FF007034FF4966213F0E6FA19491748A4
:1054C00017F054FED5F86431DB689847044630B1D4
:1054D0000346154A0B48012115F04EFEB2E726B9E6
:1054E00008B0BDE87040FFF72FBD05F1C40013F010
:1054F000C5FAA7E76FF07704A4E700BF000000201B
:105500003F040200F4DB0100481400208D4B000032
:1055100000370020080C002058040200880C0020EE
:10552000403A00205E04020067040200044BBFF30F
:105530005B8F1868BFF35B8FC0F38000704700BFBC
:10554000D40000200048704783040200F8B50A4DDB
:10555000EF7906460024E3B29F4202D86FF00100C3
:1055600007E02946304615F012FF0735631C08B1E5
:105570002046F8BD1C46EEE70000002070B5194E2D
:1055800006223146054618F026F930B3062142F2CC
:105590000500FEF793FF044608B3062229460C30A7
:1055A00017F0DAF82146002242F20500FEF7C2FFAA
:1055B000044648B110F10D0F04D10B4A0B480221EB
:1055C00015F0EDFE204670BD33462A6843F8692980
:1055D000AA88B280012283F868200024F2E76FF0E5
:1055E0006804EFE76900002097050200FCDB01007A
:1055F00037B504460D4689B11849284615F0C7FE4F
:1056000060B9174A2968C4EBC404A3181151AA88C9
:105610009A80AA799A71002003B030BD684615F0CF
:105620007CFD0028F8D16846FFF790FF0028F5DAE6
:105630000B4A00989DF80610C4EBC404A31810513F
:10564000BDF8040098809971002DE4D012592A60A9
:105650009A88AA809B79AB71DDE700BFE3FC01006B
:105660000000002070B50446B1B9C0B1204915F062
:105670008EFEA0B92046FFF769FF002831DA2378B3
:10568000012B04D1A37903F0C003C02B07D0194A22
:105690001948012115F083FE6FF0150070BD174DFC
:1056A000EB79012B20D0BFF35B8FD5F8D430BFF35B
:1056B0005B8FDB0707D4002CEED00D49204615F098
:1056C00066FE0028E8D1EE792146731C3046EB7166
:1056D000FFF78EFF08B93046E0E7EB79013BEB714D
:1056E000DCE76FF07700D9E76FF00B00D6E700BF7B
:1056F000E3FC0100A6050200FCDB01000000002025
:105700002DE9F341044640B91A4A1B48022115F01D
:1057100046FE002002B0BDE8F08101AA002141F25E
:105720000900FEF707FF054608B1144AEDE7019EA0
:105730001349D6F80C8008F101070622384618F004
:105740004AF828B10F490622384618F044F818B92B
:10575000304610F073FCDCE7D8F80130C4F80130B3
:10576000BB88A4F805303046257010F067FC012096
:10577000D0E700BFD4050200FCDB0100ED0502000C
:10578000F0FC0100EAFC010007B56846FFF7B8FF2E
:10579000044BD87118B169460020FFF729FF03B008
:1057A0005DF804FB00000020F0B5304DEC7989B0C5
:1057B000002C53D195F8C26016F0010610D12C4A86
:1057C0002C48022115F0EBFDEC7116260024012770
:1057D000EB79E0B298422CD3002B3FD000203BE085
:1057E0006A4621464FF60940FEF7A4FE08B1224A58
:1057F000E6E7DDF800C0DCF80C104B7823B9604612
:1058000010F01CFC1D4ADBE78B1C02AA01F11204FC
:1058100018685968174603C70833A3423A46F7D1B8
:10582000186838609B88BB80604610F007FC3446DF
:10583000CAE708AB06FB0033694653F8182C33F867
:10584000143CCDF80120ADF805308DF80070FFF75D
:10585000CFFE01340028BBD009B0F0BD00210846BE
:1058600009B0BDE8F040FFF7FDBE00BF000000201A
:105870000B060200FCDB010037060200570602009F
:105880002DE9F04190460E461D46024650B14BB1FF
:105890003103047810D5730708D52B4A2B48012112
:1058A00015F07DFD6FF01500BDE8F08115F086FD67
:1058B0000028F9D1012341E0F70730D5244FB8F192
:1058C000000F13D0B0060AD4C4EBC403FB5C012B59
:1058D00013D02B70B20620D543F002030BE097F8EB
:1058E000D8305906F0D46FF08500DDE7C4EBC4036F
:1058F000FB5C012B01D02B700FE0072101FB047131
:105900000131104615F052FD0028CDD1C4EBC4047E
:105910003B5D2B70B8F1000FDCD10020C4E77307AA
:105920000ED50B4EC4EBC407F35D012BE3D1072169
:1059300011FB0431314415F039FDF35D2B70B3E7F1
:1059400015F03CFDB6E700BF80060200FCDB01005D
:105950000000002038B5104DEB7913B1002420462B
:1059600038BDFFF711FF044628B10C4A0C4801214D
:1059700015F015FDF3E7EB79002BEFD1FFF714FFDE
:1059800004460028F1D1681CFFF7F8FD0446002802
:10599000E5D0044AEAE700BF000000209F060200AD
:1059A000FCDB0100BE0602002DE9F74F0C4620216A
:1059B00000909246FEF782FD0546002855D0202132
:1059C0000C3016F0C3FE20220021814617F0FBFEAA
:1059D00009F1010B04EBCA0A0026D4F80080002369
:1059E000626893420CD30834A245F6D1009889F836
:1059F00000600022294603B0BDE8F04FFEF79ABDD3
:105A000098F8012098F800C0B01C81181F2915D9FA
:105A1000BCF1090FC0F11F0201D1002A0CDC144AAD
:105A20001448012114F0F1FF284610F007FB6FF035
:105A3000150003B0BDE8F08F4FF0080CD7B2791C09
:105A40000BF80610711CC9B25BFA80F00BF801C0AC
:105A5000D8F804100193023717F0A7FE019B3744D2
:105A6000FEB2013308F10808BAE76FF06800E0E71A
:105A7000E1060200ACDB010008B504490722093049
:105A800017F0A9FE003818BF012008BDE3FC010093
:105A9000F8B5154B067883F86F6004460D46FFF79E
:105AA000EBFF70B91149304600F09AFF044610B977
:105AB0006FF00B00F8BD052100F096FD2C60002072
:105AC000F8E704F109073946304600F0BFFF40B956
:105AD0002078394600F084FF04460028E8D00621EB
